:100000000C9435010C9466010C9466010C94660105
:100010000C9466010C9466010C9466010C946601C4
:100020000C9466010C9466010C9466010C946601B4
:100030000C9466010C9466010C9466010C946601A4
:100040000C9466010C9466010C9466010C94660194
:100050000C9466010C9466010C9466010C944D0599
:100060000C9466010C9417050C94ED040C94660135
:100070000C9466010C9466010C9466010C94660164
:100080000C9466010C9466010C9466010C94660154
:100090000C9466010C9466010C9466010C94660144
:1000A0000C9466010C9466010C9466010C94660134
:1000B0000C9466010C9466010C9466010C94660124
:1000C0000C9466010C9466010C9466010C94660114
:1000D0000C9466010C9466010C9466010C94660104
:1000E0000C9466010C94F5020C94E7020C944B02FC
:1000F0000C94C4020C94E3020C94DF020C94F10201
:100100000C94FF020C94B8010C94BA020C94D50222
:100110000C94FB020C94A4010C94DC090C94C8020E
:100120000C94ED020C94FA020C94FE010C94D9028A
:100130000C94C0020C9468010C9495010C94CF02AD
:100140000C94C6010C94CC0200002100240027006E
:100150002A002D00300033000101000004010701D6
:100160000A0100002200250028002B002E0031008B
:10017000340002010000050108010B01000020000D
:100180002300260029002C002F003200000100006F
:10019000030106010901050505050705080808080A
:1001A000020202020A0A080804040404010101010F
:1001B000010101010303030303030303040707070A
:1001C0000C0C0C0C0C0C0C0C0202020206060606AF
:1001D000060606060B0B0B0B0B0B0B0B010210207C
:1001E000200808102040102040800201020108046D
:1001F0000201010204081020408080402010080401
:100200000201800402018040201008040201080459
:10021000020101020408102040800102040810209D
:10022000408000000A0B02090C0D0E0807030401B0
:1002300000000000000000000000000000000000BE
:10024000000000000000000000000000000012118B
:10025000100000000000000000000000000000008E
:100260000000000000000000DC0911241FBECFEFD9
:10027000D1E2DEBFCDBF00E00CBF13E0A0E0B2E0F2
:10028000E6E6F4E100E00BBF02C007900D92A03358
:10029000B107D9F723E0A0E3B3E001C01D92A23E6D
:1002A000B207E1F711E0C5E3D1E000E006C0219715
:1002B0000109802FFE010E94290AC433D10780E082
:1002C0000807A9F70E94AE050C94310A0C940000AF
:1002D000AF92BF92CF92DF92EF92FF920F931F9354
:1002E000CF93DF936C017B018B01040F151FEB0192
:1002F0005E01AE18BF08C017D10759F06991D60149
:10030000ED91FC910190F081E02DC6011995892BAA
:1003100079F7C501DF91CF911F910F91FF90EF9079
:10032000DF90CF90BF90AF900895FC01538D448D26
:10033000252F30E0842F90E0821B930B541710F090
:10034000CF96089501970895FC01918D828D98179D
:1003500061F0A28DAE0FBF2FB11D5D968C91928D75
:100360009F5F9F73928F90E008958FEF9FEF0895A6
:10037000FC01918D828D981731F0828DE80FF11D6F
:10038000858D90E008958FEF9FEF0895FC01918D8A
:10039000228D892F90E0805C9F4F821B91098F7383
:1003A0009927089585E493E00E94C60121E0892BF6
:1003B00009F420E0822F0895FC01A48DA80FB92F25
:1003C000B11DA35ABF4F2C91848D90E001968F737D
:1003D0009927848FA689B7892C93A089B1898C919C
:1003E000837080648C93938D848D981306C00288EB
:1003F000F389E02D80818F7D80830895EF92FF92B5
:100400000F931F93CF93DF93EC0181E0888F9B8D37
:100410008C8D98131AC0E889F989808185FF15C0F1
:100420009FB7F894EE89FF896083E889F989808114
:100430008370806480839FBF81E090E0DF91CF91E3
:100440001F910F91FF90EF900895F62E0B8D10E005
:100450000F5F1F4F0F731127E02E8C8D8E110CC074
:100460000FB607FCFACFE889F989808185FFF5CFBF
:10047000CE010E94DC01F1CFEB8DEC0FFD2FF11DC1
:10048000E35AFF4FF0829FB7F8940B8FEA89FB89FC
:1004900080818062CFCFCF93DF93EC01888D88235A
:1004A000B9F0AA89BB89E889F9898C9185FD03C0D7
:1004B000808186FD0DC00FB607FCF7CF8C9185FFBC
:1004C000F2CF808185FFEDCFCE010E94DC01E9CF24
:1004D000DF91CF91089580E090E0892B29F00E9470
:1004E000D20181110E94000080E090E0892B49F048
:1004F00080E090E0892B29F00E94000081110E9489
:10050000000080E090E0892B49F080E090E0892BAA
:1005100029F00E94000081110E94000080E090E01C
:10052000892B49F080E090E0892B29F00E9400009F
:1005300081110C94000008958150823108F05AC056
:10054000E82FF0E08827E855FD4F8F4F0C94290ADB
:10055000C802CC02BA02C002C402FA02CF02D5021B
:10056000D902DF02E302E702ED02F102FA02F5022C
:10057000FB02FF02809180008F77809380000895B6
:10058000809180008F7DF9CF80918000877FF5CFAB
:1005900084B58F7784BD089584B58F7DFBCF80911E
:1005A000B0008F778093B00008958091B0008F7D68
:1005B000F9CF809190008F7780939000089580917B
:1005C00090008F7DF9CF80919000877FF5CF80914B
:1005D000A0008F778093A00008958091A0008F7D68
:1005E000F9CF8091A000877FF5CF809120018F7790
:1005F000809320010895809120018F7DF9CF809113
:100600002001877FF5CFCF93DF93282F30E0F901CA
:10061000EE5DFD4F8491F901E452FE4FD491F90152
:10062000EA56FE4FC491CC23A1F081110E949C0296
:10063000EC2FF0E0EE0FFF1FE458FE4FA591B491B0
:10064000EC91ED2381E090E009F480E0DF91CF911F
:10065000089580E090E0FACF1F93CF93DF93282F87
:1006600030E0F901EE5DFD4F8491F901E452FE4F57
:10067000D491F901EA56FE4FC491CC23A9F0162F6C
:1006800081110E949C02EC2FF0E0EE0FFF1FEE594B
:10069000FE4FA591B4918FB7F894EC91111108C059
:1006A000D095DE23DC938FBFDF91CF911F9108950A
:1006B000DE2BF8CFCF93DF93D62FC42F60E00E94BC
:1006C0002C0360E08D2F0E942C0361E08C2FDF91C2
:1006D000CF910C942C03CF93DF9390E0FC01E45274
:1006E000FE4F24918A569E4FFC0184918823D1F0BD
:1006F00090E0880F991FFC01E85BFE4FA591B49133
:10070000FC01EE59FE4FC591D49161110EC09FB707
:10071000F8948C91E22FE0958E238C932881E2232C
:10072000E8839FBFDF91CF9108958FB7F894EC9144
:10073000E22BEC938FBFF6CF3FB7F894809135034F
:1007400090913603A0913703B091380326B5A89B4A
:1007500005C02F3F19F00196A11DB11D3FBFBA2F53
:10076000A92F982F8827BC01CD01620F711D811D13
:10077000911D42E0660F771F881F991F4A95D1F798
:1007800008958F929F92AF92BF92CF92DF92EF9295
:10079000FF924B015C010E949C036B017C010E9453
:1007A0009C036C197D098E099F09683E7340810581
:1007B0009105A8F321E0821A9108A108B10888EEFA
:1007C000C80E83E0D81EE11CF11C81149104A10421
:1007D000B10429F7FF90EF90DF90CF90BF90AF90DA
:1007E0009F908F90089585E30E940303892BD9F78A
:1007F00061E083E40E942C036AE070E080E090E016
:100800000E94C10360E083E40C942C03CF93DF9338
:10081000C82FD62F85E30E940303892BD9F761E007
:100820008C2F0E942C0361E08D2F0E942C036AE024
:1008300070E080E090E00E94C10360E08D2F0E9494
:100840002C0360E08C2FDF91CF910C942C036EE091
:1008500084E10E94060461E082E10E942C0360E0D2
:1008600082E10E942C0365E18FE00C94060461E0B4
:1008700085E40E942C0361E082E10E942C0365E183
:100880008FE00E94060460E082E10E942C0360E099
:1008900085E40C942C0361E084E30E942C0361E066
:1008A00083E10E942C0365E18FE00E94060460E072
:1008B00083E10E942C0360E084E30C942C03CF932B
:1008C000C82F61E48EE30E9406046EE080E40E947B
:1008D000060461E08C2F0E942C0360E08C2F0E94A4
:1008E0002C0365E18FE0CF910C940604CF93DF9346
:1008F00080E30E940303CDE3D3E0888381E30E9479
:100900000303898382E30E9403038A8383E30E94B3
:1009100003038B83DF91CF910895CF93DF93FC0185
:1009200001900020E9F73197AF01481B590BBC013A
:1009300085E493E00E946801EC0142E050E06CE144
:1009400072E085E493E00E9468018C0F9D1FDF91A7
:10095000CF9108950F931F93CF93DF93082F162FF6
:10096000D42FC22F8FE192E00E948D0485E30E9474
:100970000303892BD9F761E083E00E942C03602FE9
:1009800084E00E942C03612F85E00E942C036D2FD0
:1009900086E00E942C036C2F87E00E942C036AE003
:1009A00070E080E090E00E94C10360E083E00E947C
:1009B0002C0360E084E00E942C0360E085E00E944C
:1009C0002C0360E086E00E942C0360E087E0DF916A
:1009D000CF911F910F910C942C031F920F920FB681
:1009E0000F9211240BB60F922F933F934F935F9367
:1009F0006F937F938F939F93AF93BF93EF93FF93E7
:100A000085E493E00E94DC01FF91EF91BF91AF91EB
:100A10009F918F917F916F915F914F913F912F9116
:100A20000F900BBE0F900FBE0F901F9018951F9246
:100A30000F920FB60F9211240BB60F922F938F9334
:100A40009F93EF93FF93E0915503F09156038081BC
:100A5000E0915B03F0915C0382FD1DC09081809169
:100A60005E038F5F8F7320915F03821741F0E091E7
:100A70005E03F0E0EB5BFC4F958F80935E03FF918C
:100A8000EF919F918F912F910F900BBE0F900FBE02
:100A90000F901F9018958081F2CF1F920F920FB682
:100AA0000F9211242F933F938F939F93AF93BF93F4
:100AB0008091310390913203A0913303B0913403BC
:100AC0003091300323E0230F2D3758F50196A11DF7
:100AD000B11D209330038093310390933203A09390
:100AE0003303B09334038091350390913603A09182
:100AF0003703B09138030196A11DB11D80933503D2
:100B000090933603A0933703B0933803BF91AF910E
:100B10009F918F913F912F910F900FBE0F901F903B
:100B2000189526E8230F0296A11DB11DD2CFCF93B1
:100B3000DF9388E00E940303C9E3D3E0888389E060
:100B40000E94030389838AE00E9403038A838BE067
:100B50000E9403038B83DF91CF910895789484B52D
:100B6000826084BD84B5816084BD85B5826085BDA9
:100B700085B5816085BD80916E00816080936E0037
:100B80001092810080918100826080938100809129
:100B900081008160809381008091800081608093DA
:100BA00080008091B10084608093B1008091B0009A
:100BB00081608093B0008091910082608093910069
:100BC000809191008160809391008091900081607C
:100BD000809390008091A10082608093A100809119
:100BE000A10081608093A1008091A000816080932A
:100BF000A0008091210182608093210180912101D8
:100C00008160809321018091200181608093200187
:100C100080917A00846080937A0080917A0082606B
:100C200080937A0080917A00816080937A0080912D
:100C30007A00806880937A001092C100E091550399
:100C4000F091560382E08083E0915103F0915203CA
:100C50001082E0915303F09154038FEC8083109243
:100C60005D03E0915903F0915A0386E08083E0919F
:100C70005703F0915803808180618083E09157038E
:100C8000F0915803808188608083E0915703F09150
:100C90005803808180688083E0915703F091580366
:100CA00080818F7D80838FEF80BB60E080E20E9437
:100CB0006B0360E081E20E946B0360E082E20E94CD
:100CC0006B0360E083E20E946B0360E084E20E94B9
:100CD0006B0360E085E20E946B0360E086E20E94A5
:100CE0006B0360E087E20E946B0360E088E20E9491
:100CF0006B0360E089E20E946B0360E08AE20E947D
:100D00006B0360E08BE20E946B0360E08CE20E9468
:100D10006B0360E08DE20E946B0360E08EE20E9454
:100D20006B0360E08FE20E946B0361E083E40E944A
:100D30006B0361E082E40E946B0361E081E40E9446
:100D40006B0361E080E40E946B0361E08FE30E942B
:100D50006B0361E08EE30E946B0361E085E10E941A
:100D60006B0361E084E10E946B0361E083E10E9418
:100D70006B0361E082E10E946B0361E081E10E940C
:100D80006B0361E080E10E946B0361E08FE00E94F1
:100D90006B0361E08EE00E946B0361E084E40E94DB
:100DA0006B0361E084E30E946B0361E085E40E94D1
:100DB0006B0360E085E30E946B0360E080E30E94C8
:100DC0006B0360E081E30E946B0360E082E30E94BA
:100DD0006B0360E083E30E946B0361E083E00E94A9
:100DE0006B0361E084E00E946B0361E085E00E9498
:100DF0006B0361E086E00E946B0361E087E00E9484
:100E00006B0360E088E00E946B0360E089E00E9471
:100E10006B0360E08AE00E946B0360E08BE00E945D
:100E20006B0311B834E6932E0AE010E061E482E42B
:100E30000E9406046FE380E40E94060480E20E94A0
:100E40000303892B71F083E392E00E948D0461E437
:100E50008EE30E94060465E180E40E9406040E947D
:100E6000F30381E20E940303892B49F08EE392E0B1
:100E70000E948D0483E10E945F040E94F30382E2DA
:100E80000E940303892B49F089E492E00E948D04BB
:100E900082E10E945F040E94F30383E20E94030345
:100EA000892B49F084E592E00E948D0481E10E9443
:100EB0005F040E94F30384E20E940303892B09F478
:100EC00048C08FE592E00E948D0461E48EE30E94A9
:100ED00006046EE080E40E94060480B181112BC0FC
:100EE0008AE692E00E948D04C9E7DEE34EE16CE001
:100EF0008FE10E945A03C1BB61E070E080E090E0A6
:100F00000E94C1034FE16CE08EE10E945A03C1BB15
:100F100061E070E080E090E00E94C1034CE06EE18F
:100F20008FE10E945A03D1BB61E070E080E090E065
:100F30000E94C103DBCF61E080E10E942C0360E0EE
:100F400080E10E942C0365E18FE00E9406040E946C
:100F5000F30385E20E940303892B09F484C089E727
:100F600092E00E948D0461E48EE30E9406046EE02C
:100F700080E40E940604C0B1C1112BC084E892E055
:100F80000E948D04C9E7DEE34EE16CE08FE10E9430
:100F90005A03C1BB61E070E080E090E00E94C103B1
:100FA0004FE16CE08EE10E945A03C1BB61E070E04A
:100FB00080E090E00E94C1034CE06EE18FE10E946E
:100FC0005A03D1BB61E070E080E090E00E94C10371
:100FD000DBCF6EE084E10E940604D0B10E942704BA
:100FE000FC2E0E944B04FA94F110FBCF6EE084E1DA
:100FF0000E9406040E943704C150E1F7CD2FCC2394
:1010000021F00E944B04C150FACF80E10E945F049E
:1010100061E081E10E942C0360E081E10E942C03E9
:1010200065E18FE00E9406046EE084E10E94060400
:10103000C0B1CC2321F00E943704C150FACFDD2388
:1010400021F00E944B04D150FACF61E082E10E946E
:101050002C0360E082E10E942C0365E18FE00E9496
:1010600006040E94F30386E20E940303892B41F0E9
:101070008EE892E00E948D040E944B040E94F303CC
:1010800087E20E940303892B41F089E992E00E94E4
:101090008D040E9437040E94F30388E20E94030338
:1010A000892B99F185EA92E00E948D0461E48EE338
:1010B0000E9406046EE080E40E940604C0B1CC23C6
:1010C000A1F06EE084E10E940604C130E1F061E02D
:1010D00081E10E942C0360E081E10E942C0365E124
:1010E0008FE00E940604C150F0CF61E081E10E94D0
:1010F0002C0360E081E10E942C0365E18FE00E94F7
:1011000006040E944B040E94F30389E20E94030339
:10111000892B09F442C088EB92E00E948D046EE0B6
:1011200084E10E940604D0B1D33088F1C1E02D2FB4
:101130002150330B6901CC151D046CF5FC2EFF20EA
:1011400021F00E943704FA94FACF61E081E10E9415
:101150002C0360E081E10E942C0365E18FE00E9496
:1011600006046EE084E10E940604CF5FCC151D04E6
:1011700014F7F0B0FF2021F00E943704FA94FACF60
:10118000FD2E0E944B04FA94F110FBCFD4CFD11165
:1011900002C00E944B040E94F3038AE20E940303F0
:1011A000892B09F441C08FEC92E00E948D040E94CB
:1011B00076046EE084E10E940604D0B1D23090F152
:1011C0000E9427040E944B046EE084E10E94060402
:1011D000F0B0DF1528F10E944B046EE084E10E941C
:1011E0000604C0B161E081E10E942C0360E081E16E
:1011F0000E942C0365E18FE00E9406046EE084E10A
:101200000E940604F0B00E942704CC2321F00E9423
:101210004B04C150FACF6EE084E10E940604D9CF9E
:101220000E9437040E94F3038BE20E940303892B80
:1012300081F081EE92E00E948D0420914403409160
:10124000430360914203809141030E94AA040E94DB
:10125000F3038CE20E940303892B09F45CC08FEE38
:1012600092E00E948D046EE084E10E94060480B149
:10127000692D0E94090AC82FD0E0892F90E0B8019B
:101280000E94150A26E2A22E22E0B22ECE5EDD4F8B
:10129000FB01EE5EFD4F6F019C012E5E3D4F79011B
:1012A0004EE16CE08FE10E945A03888181BB61E0CE
:1012B00070E080E090E00E94C1034FE16CE08EE1BD
:1012C0000E945A03F601808181BB61E070E080E0FA
:1012D00090E00E94C1034CE06EE18FE10E945A034E
:1012E000F701808181BB61E070E080E090E00E94C6
:1012F000C103F1E0AF1AB10899F660E08EE10E94F7
:101300002C0360E08CE00E942C0360E08FE10E94DF
:101310002C030E94F3038DE20E940303892B69F0E2
:101320008AEF92E00E948D0468EE73E080E090E026
:101330000E94C10385E093E0F5CF8EE20E94030393
:10134000892B11F187E193E00E948D040E947604BD
:1013500080913D038093410380913E03809342033B
:1013600080913F0380934303809140038093440323
:101370000E94970520913C0340913B0360913A0302
:10138000809139030E94AA048FE20E940303892BF3
:1013900081F083E293E00E948D040E9497052091E2
:1013A0003C0340913B0360913A03809139030E94D2
:1013B000AA040E946B023ACDE5E4F3E013821282A4
:1013C00088EE93E0A0E0B0E084839583A683B783A2
:1013D00084E092E09183808385EC90E09587848718
:1013E00084EC90E09787868780EC90E0918B808BEF
:1013F00081EC90E0938B828B82EC90E0958B848BD8
:1014000086EC90E0978B868B118E128E138E148E45
:101410000895991B79E004C0991F961708F0961B50
:10142000881F7A95C9F780950895AA1BBB1B51E1C7
:1014300007C0AA1FBB1FA617B70710F0A61BB70B44
:10144000881F991F5A95A9F780959095BC01CD01E9
:101450000895EE0FFF1F881F8BBF0790F691E02DB8
:061460001994F894FFCF7F
:1014660000000000FE01680195014B02C601A401BF
:10147600B8013F065B4F666D7D077F670D0A006CFE
:101486006F6164696E6720696E73747275637469DF
:101496006F6E00494E5055543A204C444100494E17
:1014A6005055543A2041444400494E5055543A2030
:1014B60053554200494E5055543A204D554C00491B
:1014C6004E5055543A20444956004469766973692A
:1014D6006F6E20627920302E00494E5055543A20C6
:1014E6004D4F44004D6F6420627920302E00494EE6
:1014F6005055543A20494E4300494E5055543A20CF
:101506004445434D00494E5055543A204F503120E2
:1015160028504F5745522900494E5055543A204FAE
:1015260050322028464143544F5249414C290049E4
:101536004E5055543A204F50332028535152542977
:1015460000494E5055543A2052455455524E004982
:101556004E5055543A204F555400494E5055543A22
:1015660020484C540050726F6772616D2068616C40
:101576007465642E2E2E00494E5055543A20434130
:101586004C4C00494E5055543A20474F544F00009A
:00000001FF
